{
  "_format": "hh-sol-artifact-1",
  "contractName": "VoiceSeed",
  "sourceName": "contracts/VoiceSeed.sol",
  "abi": [
    {
      "inputs": [],
      "stateMutability": "nonpayable",
      "type": "constructor"
    },
    {
      "inputs": [
        {
          "internalType": "address",
          "name": "sender",
          "type": "address"
        },
        {
          "internalType": "uint256",
          "name": "tokenId",
          "type": "uint256"
        },
        {
          "internalType": "address",
          "name": "owner",
          "type": "address"
        }
      ],
      "name": "ERC721IncorrectOwner",
      "type": "error"
    },
    {
      "inputs": [
        {
          "internalType": "address",
          "name": "operator",
          "type": "address"
        },
        {
          "internalType": "uint256",
          "name": "tokenId",
          "type": "uint256"
        }
      ],
      "name": "ERC721InsufficientApproval",
      "type": "error"
    },
    {
      "inputs": [
        {
          "internalType": "address",
          "name": "approver",
          "type": "address"
        }
      ],
      "name": "ERC721InvalidApprover",
      "type": "error"
    },
    {
      "inputs": [
        {
          "internalType": "address",
          "name": "operator",
          "type": "address"
        }
      ],
      "name": "ERC721InvalidOperator",
      "type": "error"
    },
    {
      "inputs": [
        {
          "internalType": "address",
          "name": "owner",
          "type": "address"
        }
      ],
      "name": "ERC721InvalidOwner",
      "type": "error"
    },
    {
      "inputs": [
        {
          "internalType": "address",
          "name": "receiver",
          "type": "address"
        }
      ],
      "name": "ERC721InvalidReceiver",
      "type": "error"
    },
    {
      "inputs": [
        {
          "internalType": "address",
          "name": "sender",
          "type": "address"
        }
      ],
      "name": "ERC721InvalidSender",
      "type": "error"
    },
    {
      "inputs": [
        {
          "internalType": "uint256",
          "name": "tokenId",
          "type": "uint256"
        }
      ],
      "name": "ERC721NonexistentToken",
      "type": "error"
    },
    {
      "anonymous": false,
      "inputs": [
        {
          "indexed": true,
          "internalType": "address",
          "name": "owner",
          "type": "address"
        },
        {
          "indexed": true,
          "internalType": "address",
          "name": "approved",
          "type": "address"
        },
        {
          "indexed": true,
          "internalType": "uint256",
          "name": "tokenId",
          "type": "uint256"
        }
      ],
      "name": "Approval",
      "type": "event"
    },
    {
      "anonymous": false,
      "inputs": [
        {
          "indexed": true,
          "internalType": "address",
          "name": "owner",
          "type": "address"
        },
        {
          "indexed": true,
          "internalType": "address",
          "name": "operator",
          "type": "address"
        },
        {
          "indexed": false,
          "internalType": "bool",
          "name": "approved",
          "type": "bool"
        }
      ],
      "name": "ApprovalForAll",
      "type": "event"
    },
    {
      "anonymous": false,
      "inputs": [
        {
          "indexed": false,
          "internalType": "uint256",
          "name": "_fromTokenId",
          "type": "uint256"
        },
        {
          "indexed": false,
          "internalType": "uint256",
          "name": "_toTokenId",
          "type": "uint256"
        }
      ],
      "name": "BatchMetadataUpdate",
      "type": "event"
    },
    {
      "anonymous": false,
      "inputs": [
        {
          "indexed": false,
          "internalType": "uint256",
          "name": "_tokenId",
          "type": "uint256"
        }
      ],
      "name": "MetadataUpdate",
      "type": "event"
    },
    {
      "anonymous": false,
      "inputs": [
        {
          "indexed": true,
          "internalType": "address",
          "name": "from",
          "type": "address"
        },
        {
          "indexed": true,
          "internalType": "address",
          "name": "to",
          "type": "address"
        },
        {
          "indexed": true,
          "internalType": "uint256",
          "name": "tokenId",
          "type": "uint256"
        }
      ],
      "name": "Transfer",
      "type": "event"
    },
    {
      "anonymous": false,
      "inputs": [
        {
          "indexed": true,
          "internalType": "uint256",
          "name": "tokenId",
          "type": "uint256"
        },
        {
          "indexed": true,
          "internalType": "address",
          "name": "to",
          "type": "address"
        }
      ],
      "name": "VoiceSeedMinted",
      "type": "event"
    },
    {
      "inputs": [
        {
          "internalType": "address",
          "name": "to",
          "type": "address"
        },
        {
          "internalType": "uint256",
          "name": "tokenId",
          "type": "uint256"
        }
      ],
      "name": "approve",
      "outputs": [],
      "stateMutability": "nonpayable",
      "type": "function"
    },
    {
      "inputs": [
        {
          "internalType": "address",
          "name": "owner",
          "type": "address"
        }
      ],
      "name": "balanceOf",
      "outputs": [
        {
          "internalType": "uint256",
          "name": "",
          "type": "uint256"
        }
      ],
      "stateMutability": "view",
      "type": "function"
    },
    {
      "inputs": [
        {
          "internalType": "uint256",
          "name": "tokenId",
          "type": "uint256"
        }
      ],
      "name": "getApproved",
      "outputs": [
        {
          "internalType": "address",
          "name": "",
          "type": "address"
        }
      ],
      "stateMutability": "view",
      "type": "function"
    },
    {
      "inputs": [
        {
          "internalType": "address",
          "name": "owner",
          "type": "address"
        },
        {
          "internalType": "address",
          "name": "operator",
          "type": "address"
        }
      ],
      "name": "isApprovedForAll",
      "outputs": [
        {
          "internalType": "bool",
          "name": "",
          "type": "bool"
        }
      ],
      "stateMutability": "view",
      "type": "function"
    },
    {
      "inputs": [
        {
          "internalType": "address",
          "name": "to",
          "type": "address"
        },
        {
          "internalType": "string",
          "name": "tokenURI",
          "type": "string"
        }
      ],
      "name": "mintSeed",
      "outputs": [
        {
          "internalType": "uint256",
          "name": "",
          "type": "uint256"
        }
      ],
      "stateMutability": "nonpayable",
      "type": "function"
    },
    {
      "inputs": [],
      "name": "name",
      "outputs": [
        {
          "internalType": "string",
          "name": "",
          "type": "string"
        }
      ],
      "stateMutability": "view",
      "type": "function"
    },
    {
      "inputs": [
        {
          "internalType": "uint256",
          "name": "tokenId",
          "type": "uint256"
        }
      ],
      "name": "ownerOf",
      "outputs": [
        {
          "internalType": "address",
          "name": "",
          "type": "address"
        }
      ],
      "stateMutability": "view",
      "type": "function"
    },
    {
      "inputs": [
        {
          "internalType": "address",
          "name": "from",
          "type": "address"
        },
        {
          "internalType": "address",
          "name": "to",
          "type": "address"
        },
        {
          "internalType": "uint256",
          "name": "tokenId",
          "type": "uint256"
        }
      ],
      "name": "safeTransferFrom",
      "outputs": [],
      "stateMutability": "nonpayable",
      "type": "function"
    },
    {
      "inputs": [
        {
          "internalType": "address",
          "name": "from",
          "type": "address"
        },
        {
          "internalType": "address",
          "name": "to",
          "type": "address"
        },
        {
          "internalType": "uint256",
          "name": "tokenId",
          "type": "uint256"
        },
        {
          "internalType": "bytes",
          "name": "data",
          "type": "bytes"
        }
      ],
      "name": "safeTransferFrom",
      "outputs": [],
      "stateMutability": "nonpayable",
      "type": "function"
    },
    {
      "inputs": [
        {
          "internalType": "address",
          "name": "operator",
          "type": "address"
        },
        {
          "internalType": "bool",
          "name": "approved",
          "type": "bool"
        }
      ],
      "name": "setApprovalForAll",
      "outputs": [],
      "stateMutability": "nonpayable",
      "type": "function"
    },
    {
      "inputs": [
        {
          "internalType": "bytes4",
          "name": "interfaceId",
          "type": "bytes4"
        }
      ],
      "name": "supportsInterface",
      "outputs": [
        {
          "internalType": "bool",
          "name": "",
          "type": "bool"
        }
      ],
      "stateMutability": "view",
      "type": "function"
    },
    {
      "inputs": [],
      "name": "symbol",
      "outputs": [
        {
          "internalType": "string",
          "name": "",
          "type": "string"
        }
      ],
      "stateMutability": "view",
      "type": "function"
    },
    {
      "inputs": [
        {
          "internalType": "uint256",
          "name": "tokenId",
          "type": "uint256"
        }
      ],
      "name": "tokenURI",
      "outputs": [
        {
          "internalType": "string",
          "name": "",
          "type": "string"
        }
      ],
      "stateMutability": "view",
      "type": "function"
    },
    {
      "inputs": [
        {
          "internalType": "address",
          "name": "from",
          "type": "address"
        },
        {
          "internalType": "address",
          "name": "to",
          "type": "address"
        },
        {
          "internalType": "uint256",
          "name": "tokenId",
          "type": "uint256"
        }
      ],
      "name": "transferFrom",
      "outputs": [],
      "stateMutability": "nonpayable",
      "type": "function"
    }
  ],
  "bytecode": "0x608060405234801561000f575f80fd5b506040518060400160405280601381526020017f5472656567656e7320566f696365205365656400000000000000000000000000815250604051806040016040528060058152602001641594d1515160da1b815250815f9081610072919061011f565b50600161007f828261011f565b5050506101d9565b634e487b7160e01b5f52604160045260245ffd5b600181811c908216806100af57607f821691505b6020821081036100cd57634e487b7160e01b5f52602260045260245ffd5b50919050565b601f82111561011a57805f5260205f20601f840160051c810160208510156100f85750805b601f840160051c820191505b81811015610117575f8155600101610104565b50505b505050565b81516001600160401b0381111561013857610138610087565b61014c81610146845461009b565b846100d3565b6020601f82116001811461017e575f83156101675750848201515b5f19600385901b1c1916600184901b178455610117565b5f84815260208120601f198516915b828110156101ad578785015182556020948501946001909201910161018d565b50848210156101ca57868401515f19600387901b60f8161c191681555b50505050600190811b01905550565b6112ed806101e65f395ff3fe608060405234801561000f575f80fd5b50600436106100e5575f3560e01c80636352211e11610088578063a22cb46511610063578063a22cb465146101db578063b88d4fde146101ee578063c87b56dd14610201578063e985e9c514610214575f80fd5b80636352211e146101ad57806370a08231146101c057806395d89b41146101d3575f80fd5b8063095ea7b3116100c3578063095ea7b31461015157806323b872dd14610166578063301dccc91461017957806342842e0e1461019a575f80fd5b806301ffc9a7146100e957806306fdde0314610111578063081812fc14610126575b5f80fd5b6100fc6100f7366004610e08565b610227565b60405190151581526020015b60405180910390f35b610119610251565b6040516101089190610e51565b610139610134366004610e63565b6102e0565b6040516001600160a01b039091168152602001610108565b61016461015f366004610e95565b610307565b005b610164610174366004610ebd565b610316565b61018c610187366004610f82565b6103a4565b604051908152602001610108565b6101646101a8366004610ebd565b61040d565b6101396101bb366004610e63565b61042c565b61018c6101ce366004610fe0565b610436565b61011961047b565b6101646101e9366004610ff9565b61048a565b6101646101fc366004611032565b610495565b61011961020f366004610e63565b6104ad565b6100fc6102223660046110a9565b61052e565b5f6001600160e01b03198216632483248360e11b148061024b575061024b8261055b565b92915050565b60605f805461025f906110da565b80601f016020809104026020016040519081016040528092919081815260200182805461028b906110da565b80156102d65780601f106102ad576101008083540402835291602001916102d6565b820191905f5260205f20905b8154815290600101906020018083116102b957829003601f168201915b5050505050905090565b5f6102ea826105aa565b505f828152600460205260409020546001600160a01b031661024b565b6103128282336105e2565b5050565b6001600160a01b03821661034457604051633250574960e11b81525f60048201526024015b60405180910390fd5b5f6103508383336105ef565b9050836001600160a01b0316816001600160a01b03161461039e576040516364283d7b60e01b81526001600160a01b038086166004830152602482018490528216604482015260640161033b565b50505050565b600780545f91829190826103b783611112565b9190505590506103c784826106e1565b6103d181846106fa565b6040516001600160a01b0385169082907f6a4fdcbf9cb88e88c7a326217b4aee70eca92c0464dc62d0e64198305c3d9b0c905f90a39392505050565b61042783838360405180602001604052805f815250610495565b505050565b5f61024b826105aa565b5f6001600160a01b038216610460576040516322718ad960e21b81525f600482015260240161033b565b506001600160a01b03165f9081526003602052604090205490565b60606001805461025f906110da565b610312338383610749565b6104a0848484610316565b61039e3385858585610810565b60606104b8826105aa565b505f6104ce60408051602081019091525f815290565b90505f6104da84610938565b905081515f036104eb579392505050565b80511561051d57818160405160200161050592919061114d565b60405160208183030381529060405292505050919050565b610526846109d7565b949350505050565b6001600160a01b039182165f90815260056020908152604080832093909416825291909152205460ff1690565b5f6001600160e01b031982166380ac58cd60e01b148061058b57506001600160e01b03198216635b5e139f60e01b145b8061024b57506301ffc9a760e01b6001600160e01b031983161461024b565b5f818152600260205260408120546001600160a01b03168061024b57604051637e27328960e01b81526004810184905260240161033b565b6104278383836001610a48565b5f828152600260205260408120546001600160a01b039081169083161561061b5761061b818486610b4c565b6001600160a01b03811615610655576106365f855f80610a48565b6001600160a01b0381165f90815260036020526040902080545f190190555b6001600160a01b03851615610683576001600160a01b0385165f908152600360205260409020805460010190555b5f8481526002602052604080822080546001600160a01b0319166001600160a01b0389811691821790925591518793918516917fddf252ad1be2c89b69c2b068fc378daa952ba7f163c4a11628f55a4df523b3ef91a4949350505050565b610312828260405180602001604052805f815250610bb0565b5f82815260066020526040902061071182826111a5565b506040518281527ff8e1a15aba9398e019f0b49df1a4fde98ee17ae345cb5f6b5e2c27f5033e8ce79060200160405180910390a15050565b6001600160a01b0383166107725760405163a9fbf51f60e01b81525f600482015260240161033b565b6001600160a01b0382166107a457604051630b61174360e31b81526001600160a01b038316600482015260240161033b565b6001600160a01b038381165f81815260056020908152604080832094871680845294825291829020805460ff191686151590811790915591519182527f17307eab39ab6107e8899845ad3d59bd9653f200f220920489ca2b5937696c31910160405180910390a3505050565b6001600160a01b0383163b1561093157604051630a85bd0160e11b81526001600160a01b0384169063150b7a0290610852908890889087908790600401611260565b6020604051808303815f875af192505050801561088c575060408051601f3d908101601f191682019092526108899181019061129c565b60015b6108f3573d8080156108b9576040519150601f19603f3d011682016040523d82523d5f602084013e6108be565b606091505b5080515f036108eb57604051633250574960e11b81526001600160a01b038516600482015260240161033b565b805160208201fd5b6001600160e01b03198116630a85bd0160e11b1461092f57604051633250574960e11b81526001600160a01b038516600482015260240161033b565b505b5050505050565b5f818152600660205260409020805460609190610954906110da565b80601f0160208091040260200160405190810160405280929190818152602001828054610980906110da565b80156109cb5780601f106109a2576101008083540402835291602001916109cb565b820191905f5260205f20905b8154815290600101906020018083116109ae57829003601f168201915b50505050509050919050565b60606109e2826105aa565b505f6109f860408051602081019091525f815290565b90505f815111610a165760405180602001604052805f815250610a41565b80610a2084610bc7565b604051602001610a3192919061114d565b6040516020818303038152906040525b9392505050565b8080610a5c57506001600160a01b03821615155b15610b1d575f610a6b846105aa565b90506001600160a01b03831615801590610a975750826001600160a01b0316816001600160a01b031614155b8015610aaa5750610aa8818461052e565b155b15610ad35760405163a9fbf51f60e01b81526001600160a01b038416600482015260240161033b565b8115610b1b5783856001600160a01b0316826001600160a01b03167f8c5be1e5ebec7d5bd14f71427d1e84f3dd0314c0f7b2291e5b200ac8c7c3b92560405160405180910390a45b505b50505f90815260046020526040902080546001600160a01b0319166001600160a01b0392909216919091179055565b610b57838383610c57565b610427576001600160a01b038316610b8557604051637e27328960e01b81526004810182905260240161033b565b60405163177e802f60e01b81526001600160a01b03831660048201526024810182905260440161033b565b610bba8383610cb8565b610427335f858585610810565b60605f610bd383610d19565b60010190505f8167ffffffffffffffff811115610bf257610bf2610ef7565b6040519080825280601f01601f191660200182016040528015610c1c576020820181803683370190505b5090508181016020015b5f19016f181899199a1a9b1b9c1cb0b131b232b360811b600a86061a8153600a8504945084610c2657509392505050565b5f6001600160a01b038316158015906105265750826001600160a01b0316846001600160a01b03161480610c905750610c90848461052e565b806105265750505f908152600460205260409020546001600160a01b03908116911614919050565b6001600160a01b038216610ce157604051633250574960e11b81525f600482015260240161033b565b5f610ced83835f6105ef565b90506001600160a01b03811615610427576040516339e3563760e11b81525f600482015260240161033b565b5f8072184f03e93ff9f4daa797ed6e38ed64bf6a1f0160401b8310610d575772184f03e93ff9f4daa797ed6e38ed64bf6a1f0160401b830492506040015b6d04ee2d6d415b85acef81000000008310610d83576d04ee2d6d415b85acef8100000000830492506020015b662386f26fc100008310610da157662386f26fc10000830492506010015b6305f5e1008310610db9576305f5e100830492506008015b6127108310610dcd57612710830492506004015b60648310610ddf576064830492506002015b600a831061024b5760010192915050565b6001600160e01b031981168114610e05575f80fd5b50565b5f60208284031215610e18575f80fd5b8135610a4181610df0565b5f81518084528060208401602086015e5f602082860101526020601f19601f83011685010191505092915050565b602081525f610a416020830184610e23565b5f60208284031215610e73575f80fd5b5035919050565b80356001600160a01b0381168114610e90575f80fd5b919050565b5f8060408385031215610ea6575f80fd5b610eaf83610e7a565b946020939093013593505050565b5f805f60608486031215610ecf575f80fd5b610ed884610e7a565b9250610ee660208501610e7a565b929592945050506040919091013590565b634e487b7160e01b5f52604160045260245ffd5b5f8067ffffffffffffffff841115610f2557610f25610ef7565b50604051601f19601f85018116603f0116810181811067ffffffffffffffff82111715610f5457610f54610ef7565b604052838152905080828401851015610f6b575f80fd5b838360208301375f60208583010152509392505050565b5f8060408385031215610f93575f80fd5b610f9c83610e7a565b9150602083013567ffffffffffffffff811115610fb7575f80fd5b8301601f81018513610fc7575f80fd5b610fd685823560208401610f0b565b9150509250929050565b5f60208284031215610ff0575f80fd5b610a4182610e7a565b5f806040838503121561100a575f80fd5b61101383610e7a565b915060208301358015158114611027575f80fd5b809150509250929050565b5f805f8060808587031215611045575f80fd5b61104e85610e7a565b935061105c60208601610e7a565b925060408501359150606085013567ffffffffffffffff81111561107e575f80fd5b8501601f8101871361108e575f80fd5b61109d87823560208401610f0b565b91505092959194509250565b5f80604083850312156110ba575f80fd5b6110c383610e7a565b91506110d160208401610e7a565b90509250929050565b600181811c908216806110ee57607f821691505b60208210810361110c57634e487b7160e01b5f52602260045260245ffd5b50919050565b5f6001820161112f57634e487b7160e01b5f52601160045260245ffd5b5060010190565b5f81518060208401855e5f93019283525090919050565b5f61052661115b8386611136565b84611136565b601f82111561042757805f5260205f20601f840160051c810160208510156111865750805b601f840160051c820191505b81811015610931575f8155600101611192565b815167ffffffffffffffff8111156111bf576111bf610ef7565b6111d3816111cd84546110da565b84611161565b6020601f821160018114611205575f83156111ee5750848201515b5f19600385901b1c1916600184901b178455610931565b5f84815260208120601f198516915b828110156112345787850151825560209485019460019092019101611214565b508482101561125157868401515f19600387901b60f8161c191681555b50505050600190811b01905550565b6001600160a01b03858116825284166020820152604081018390526080606082018190525f9061129290830184610e23565b9695505050505050565b5f602082840312156112ac575f80fd5b8151610a4181610df056fea2646970667358221220a391496fa926f5c14e7de5924dbe041a0698b7f7fce210750e438a94e9a5f3df64736f6c634300081a0033",
  "linkReferences": {},
  "deployedLinkReferences": {}
}